S315080000007837002069020008293F0008CD38000823
S31508000010153E0008BF0400082D680008000000000F
S315080000200000000000000000000000009B410008DE
S3150800003065090008000000009941000831440008DD
S31508000040830200088302000883020008830200086E
S31508000050830200088302000883020008830200085E
S31508000060830200088302000883020008830200084E
S315080000708302000885080008830200089108000822
S315080000809D0800088302000883020008830200080E
S31508000090C1040008830200088302000883020008DE
S315080000A0830200088302000883020008830200080E
S315080000B0D944000883020008E544000883020008C2
S315080000C083020008830200088302000883020008EE
S315080000D083020008794C0008D14C0008DD4C000862
S315080000E083020008830200088302000883020008CE
S315080000F08302000883020008F1440008830200080E
S3150800010083020008830200088302000883020008AD
S31508000110D947000883020008830200088302000802
S315080001208302000883020008A90800088302000861
S31508000130830200088302000883020008830200087D
S31508000140CD0400088302000883020008393F00082E
S315080001508302000883020008B50800088302000825
S31508000160830200088302000883020008830200084D
S3150800017083020008830200088302000800000000CA
S31508000180830200088302000800F002F800F05CF819
S315080001900AA090E8000C82448344AAF10107DA45D4
S315080001A001D100F051F8AFF2090EBAE80F0013F0CA
S315080001B0010F18BFFB1A43F001031847BC81000062
S315080001C0DC8100000A444FF0000C10F8013B13F0E4
S315080001D0070408BF10F8014B1D1108BF10F8015B92
S315080001E0641E05D010F8016B641E01F8016BF9D185
S315080001F013F0080F1EBF10F8014BAD1C0C1B09D1DC
S315080002006D1E58BF01F801CBFAD505E014F8016B4D
S3150800021001F8016B6D1EF9D59142D6D370470000DF
S315080002200023002400250026103A28BF78C1FBD8F1
S31508000230520728BF30C148BF0B6070471FB507F08B
S3150800024098FF1FBD10B510BD00F004F91146FFF761
S31508000250F5FF07F0CBF800F022F903B4FFF7F2FF39
S3150800026003BC00F025F90000094880470948004703
S31508000270FEE7FEE7FEE7FEE7FEE7FEE7FEE7FEE748
S31508000280FEE7FEE704480549054A064B70470000A5
S31508000290C944000889010008783100207837002011
S315080002A0783300207833002053EA020C00F0698086
S315080002B02DE9F04B4FF00006002B1FBFB3FA83F56C
S315080002C003FA05F424FA05F65E4012BF1643B2FA9D
S315080002D082F502FA05F4C5F120051EBF22FA05FCCF
S315080002E044EA0C04203556EA044C4FEA144418BF75
S315080002F0641C4FF000084FF00009904271EB030CA4
S3150800030039D3002919BFB1FA81F701FA07F6B0FA0D
S3150800031080F700FA07F6C7F120071EBF20FA07FC88
S3150800032046EA0C062037B6FBF4FCA7EB0507103F98
S3150800033007F01F0BCBF120060CFA0BFB2CFA06F67E
S3150800034044BFB3460026202FA4BF5E464FF0000BDD
S315080003505BEA060C08BF4FF0010B19EB0B09ABFB68
S31508000360027C48EB0608C01B06FB02CC0BFB03CC41
S3150800037071EB0C01C1E70B46024641464846BDE80B
S31508000380F08B13B54FF000004FF00001AFF300807B
S31508000390BDE81C4070474FF000020429C0F01280E7
S315080003A010F0030C00F01B80CCF1040CBCF1020F1A
S315080003B018BF00F8012BA8BF20F8022BA1EB0C01EF
S315080003C000F00DB85FEAC17C24BF00F8012B00F8E5
S315080003D0012B48BF00F8012B70474FF0000200B50B
S315080003E0134694469646203922BFA0E80C50A0E84A
S315080003F00C50B1F12001BFF4F7AF090728BFA0E8F8
S315080004000C5048BF0CC05DF804EB890028BF40F8C3
S31508000410042B08BF704748BF20F8022B11F0804F05
S3150800042018BF00F8012B704770477047704710B522
S3150800043000F008F8006810BD10B5044600F002F890
S31508000440046010BD0048704714310020004870470A
S31508000450143100207546FFF7F9FFAE4605006946D8
S31508000460534620F00700854618B020B5FFF70AFF67
S31508000470BDE820404FF000064FF000074FF0000897
S315080004804FF0000B21F00701AC46ACE8C009ACE818
S31508000490C009ACE8C009ACE8C0098D46704710B57C
S315080004A00446AFF300802046BDE81040FFF7D5BEEE
S315080004B001491820ABBEFEE7260002007047FEE79A
S315080004C0014800F01ABD00000C020020014800F0A7
S315080004D014BD00003402002038B50E4C4FF40075E8
S315080004E025600025A560E560082525610A4C050AF2
S315080004F025706070080AA070E170100A2071627198
S31508000500180AA071E3716B4622460249034800F0B7
S3150800051079FB38BD302D0020C001002034020020B0
S31508000520002070470020704710B50022044905488E
S3150800053004F0C0FD0449034804F0AFFD002010BDD7
S315080005407012002094070020700A002070B50E462D
S3150800055005460146084804F0A0FD074804F076FD64
S31508000560002403E0285D07F0AFF8641C3068A04259
S31508000570F8D8002070BD00009407002000207047BE
S31508000580094A10B5D2F8BC22D2F814220AB10120C1
S3150800059010BD0A460146044804F08CFDBDE810402B
S315080005A0014804F001BE000094070020F8B50020B9
S315080005B006F0C0FE364C2060012006F0BBFE6060E7
S315080005C0022006F0B7FEA060032006F0B3FE002561
S315080005D0E060304E10340095009800EBC00004EB44
S315080005E0C00007F003F80098002300EB400006EB74
S315080005F0C00090ED042AD0ED051ABCEEC22A90EC94
S31508000600030A12EE101A90ED032A8AB2BCEEC22A29
S3150800061012EE100A81B2009800EBC00004EBC0008D
S31508000620C76BB8470098401C00900428D4DB009597
S31508000630184D194C6035009800EBC00004EBC0005B
S3150800064006F0D4FF0098002300EB400005EBC0003D
S3150800065090ED042AD0ED051ABCEEC22A90EC030AE6
S3150800066012EE101A90ED032A8AB2BCEEC22A12EED6
S31508000670100A81B2009800EBC00004EBC000C66BFC
S31508000680B0470098401C00900328D4DBF8BD000052
S31508000690EC2D0020B08100081C2F002000B500F0CA
S315080006A0BDF8054890ED020A80ED010A04489FED61
S315080006B0030A80ED2F0A00BDC801002000000000D3
S315080006C01C2F002070B54E4880EC030ADFED4D1A4A
S315080006D061EE211A9FED4C2A81EE821ADFED4B1A44
S315080006E021EE211ADFED4A1A61EE212A9FED492AE9
S315080006F030EE203A484C82EE821A23EE213AF3EE87
S31508000700032AA4F11005C3EE023A21EE221AB0EE2E
S31508000710413A03EEA23A84ED003A30EE603A23EE0F
S31508000720213AC3EE023AB0EE413A03EEA23A84ED1C
S31508000730123AB1EE403A30EEC00A33EE603A60EE55
S31508000740210A23EE213A80EE820AC3EE023AB0EE7F
S31508000750413A00EE221A03EEA23A84ED243A84EDD9
S31508000760361A2868616CB0F9040000EE100A2046B3
S31508000770B8EEC00A88476868D4F88C10B0F9040047
S3150800078000EE100A04F14800B8EEC00A8847A868C7
S31508000790D4F8D410B0F9040000EE100A04F1900061
S315080007A0B8EEC00A8847E868D4F81C11B0F9040006
S315080007B000EE100A04F1D800B8EEC00A884794ED96
S315080007C0430ABDEEC00A10EE100A94ED310A03B2D0
S315080007D0BDEEC00A10EE100A94ED1F0A02B2BDEE75
S315080007E0C00A10EE100A94ED0D0ABDE87040BDEE81
S315080007F0C00A01B210EE100A00B2FFF76DBE000083
S31508000800E0010020DA0F494000003443000063434A
S3150800081000007042D5316243FC2D0020144815496A
S315080008200278D1ED000AE2B190ED040A124A9FED72
S31508000830131A30EEC00A10EE101A914201DD30EE9E
S31508000840410A0F4A10EE101A914201D930EE010AF8
S3150800085090ED021A31EE000A80ED020AC0ED040A94
S315080008607047C0ED020AC0ED040A01210170704705
S31508000870C8010020F8010020000034430000B443FA
S31508000880000034C3014800F013BE0000B405002080
S31508000890014800F00DBE000014060020014800F0D3
S315080008A007BE000034070020014800F001BE000022
S315080008B074060020014800F0FBBD0000D4060020A5
S315080008C001681823CAB2103AB2FBF3F2054B6FF36C
S315080008D00901032A9B5CC36500D9091D8165084681
S315080008E070470000A781000810B5014600208B69F3
S315080008F08A6A4FF0C07453B1B3F5005F15D072B170
S31508000900012A0CD0022A0AD0032A09D104E01AB116
S31508000910012A06D0022A03D1C96AC90100D50120D5
S3150800092010BDC96AA142FAD010BD002AF7D0012A23
S31508000930F2D0022AF3D0032AF3D010BD30B50468EA
S31508000940256825F480252560046863608368402B44
S31508000950036803D099600068C26030BD9A60006879
S31508000960C16030BD70470000F0B40E4CDDE9045795
S31508000970069E2070FD206070A170100AE07022713A
S315080009806371280EA071280CE071280A207265721E
S31508000990A772E6726B2020732146F0BC0D2202482E
S315080009A002F050BF382A0020DC0400209FED0A1A06
S315080009B03EB5C0EE010A9FED091AB6EE000ADDE95A
S315080009C0064500EE810ABCEEC00A8DED000ACDE9A7
S315080009D00145FFF7C9FF3EBD0000B4430000484586
S315080009E07CB50023012500EE102ACDE900531E240C
S315080009F0B8EEC00A2246FFF7D9FF7CBD1CB5B5EE96
S31508000A00C00A01201E22F1EE10FA15D00021DFEDF2
S31508000A100B0A80EE201A9FED0A0A21EE000AB5EEAF
S31508000A20C00AF1EE10FA02D20121B1EE400A002303
S31508000A3000930193FFF7BAFF1CBD0000D9A0D54269
S31508000A400000B443064A1070FE205070982090703B
S31508000A50D1706B20107105220149024802F0F2BEDE
S31508000A60682A0020DC04002030B4094C029D20705E
S31508000A70F6206070A170100AE07022716371A5718A
S31508000A806B20E071214630BC0822024802F0DABE2B
S31508000A90282A0020DC04002072B6FEE710B59FED78
S31508000AA00F0A00220E490F4803F0A6FB0D489FEDDA
S31508000AB00E0A08220D491C3003F09EFB0948B2EEC7
S31508000AC0040A0C220949383003F096FB09489FEDC1
S31508000AD0080A002180ED010A417010BD0000344368
S31508000AE04C0300207423002000003442BC0200207E
S31508000AF0000000002801002010B5F0EE602A2DED58
S31508000B00068B294802F00AFF2748B0EE402AB0EEC5
S31508000B10620A143002F002FF2348B0EE40AAB0EE93
S31508000B20420A283003F0E6FAF0EE408A03F0ACF900
S31508000B301D4C9FED1E0A083C9FED1E1AD4ED010AB6
S31508000B4030EE208A9FED1A0A68EE800A80EE810A46
S31508000B5010EE100A07F09CFA41EC100B05F044FF62
S31508000B609FED151B51EC100B53EC112B07F09AF95E
S31508000B7041EC190B18EE100A07F08AFA53EC192BF8
S31508000B8007F092F806F004FE00EE900A04F1500011
S31508000B90C4ED010A3AEE200A03F0ACFA03F03CF978
S31508000BA0BDEC068B10BD0000300100200000C842D5
S31508000BB0D00F494000003443000000000000F03F19
S31508000BC010B5064803F0D0FB04481C3003F0CCFBF4
S31508000BD00248BDE81040383003F0C6BB7423002035
S31508000BE090F82020012A07D0022A05D0416A41F44C
S31508000BF08021416201207047006842690A434261C8
S31508000C0000207047F0B590F820500468A468012DBC
S31508000C1005D0022D03D0416A41F4802157E014F033
S31508000C20406F01D1E5004FD5C4F301640125A54005
S31508000C301D608D684FF4C0739DB1CE6835434E680C
S31508000C4045EAC605066803EB0417F5514FF4C27565
S31508000C50076805EB04150E697E51097D012905D043
S31508000C6009E00E88CD6845EA4655EBE701684E5916
S31508000C7046F480764E511179D579567941EA05615F
S31508000C8095792D0445EA062529434FF4C676056865
S31508000C9006EB0416A9511178D57841EA05619578CD
S31508000CA052782D0445EA022211434FF4C4750268AE
S31508000CB005EB04155151006803EB0411425842F044
S31508000CC0010242500020F0BD416A41F40011416220
S31508000CD00120F0BD10B590F82020012A07D0022A7D
S31508000CE005D0416A41F480214162012010BD3B488C
S31508000CF0D0F8002242F00102C0F80022D0F8002203
S31508000D0022F47C52C0F80022D0F800224B6A42EA4C
S31508000D100322C0F800220A7D02F01F0301229A402E
S31508000D20D0F81C329343C0F81C32CB69B3B9D0F85B
S31508000D300C329343C0F80C328C894B6864F31F431A
S31508000D404C6900EBC404C4F840320C890B6864F3A0
S31508000D501F434C6900EBC404C4F84432CB69012B29
S31508000D6016D1D0F80C321343C0F80C320C884B68F5
S31508000D7064F31F434C6900EBC404C4F840320C8981
S31508000D80CB6864F31F434C6900EBC404C4F84432CF
S31508000D908B69002BD0F804320ED01343C0F8043206
S31508000DA00B69002BD0F8143208D01343C0F814325C
S31508000DB0096A012904D008E09343EFE79343F5E76E
S31508000DC0D0F81C121143C0F81C12D0F8001221F0FA
S31508000DD00101C0F80012002010BD000000640040A8
S31508000DE0704700000246002092F82030012B01D0FF
S31508000DF0022B05D1106821B1D0F8100000F00300CD
S31508000E007047C068FAE770B590F82040012C05D005
S31508000E10022C03D0416A41F4802128E0046809B312
S31508000E202469A40720D04FF4D874056804EB01148C
S31508000E302D5915F00405956005682D591AD0ED0849
S31508000E40556005682C5904F00204D4604FF4DA742E
S31508000E50056804EB01142E5906F00F06082E0CD36C
S31508000E6008250DE0E468DCE7416A41F400114162B7
S31508000E70012070BD6D0D1560E3E72D5905F00F05CE
S31508000E80156105682D59C5F30725956105682C591F
S31508000E90240C54614FF4DC72046802EB0112A45866
S31508000EA01C700468A458240A5C700468A458240CAE
S31508000EB09C700468A258120EDA704FF4DE72046849
S31508000EC002EB0112A4581C710468A458240A5C7128
S31508000ED00468A458240C9C710468A258120EDA718E
S31508000EE0006829B1016941F020010161002070BD47
S31508000EF0C16841F02001C160F8E72DE9F05F0546B9
S31508000F00006800244669D0F804908768D0F80CB0C9
S31508000F10D0F810A0D0F81880F10748D0F90714D0F7
S31508000F2001218160B80703D5284600F060FA0CE075
S31508000F30780702D54FF4006407E0380702D54FF466
S31508000F40805402E0284600F051FAF80516D52968BB
S31508000F504FF480708860B80503D5284600F049FA32
S31508000F600CE0780502D544F4005407E0380502D5AC
S31508000F7044F4804402E0284600F03AFAF80316D50D
S31508000F8029684FF480308860B80303D5284600F0F6
S31508000F9032FA0CE0780302D544F4004407E038033B
S31508000FA002D544F4803402E0284600F023FA3007DC
S31508000FB007D55FEACB6004D52968102044F400748D
S31508000FC0C86070074FF0080707D55FEA0B7004D5AD
S31508000FD02868C760284600F09DF9B00706D5286836
S31508000FE0C068800702D0284600F096F9700607D533
S31508000FF05FEACA6004D52968102044F48064086151
S31508001000B00607D55FEA0A7004D52868076128463E
S3150800101000F0BCF9F00606D528680069800702D0FA
S31508001020284600F0B4F9B00308D55FEAC96005D5CB
S31508001030296810204860284600F0AAF9F00307D569
S315080010405FEA097004D528684760284600F0D4F995
S31508001050300446D55FEA497040D5F00504D55FEA05
S31508001060C87001D044F00104B00504D55FEA887061
S3150800107001D544F00204700504D55FEA487001D52D
S3150800108044F00404300529D518F0700F26D008F06E
S315080010907000402815D006DC102809D020280AD070
S315080010A0302816D10AE050280ED0602811D10EE05B
S315080010B044F008040DE044F010040AE044F020046B
S315080010C007E044F0400404E044F0800401E044F4FE
S315080010D080742868816921F070018161296804207B
S315080010E04860002C05D0686A204368622846FFF7E6
S315080010F077FEBDE8F09F70B5040003D094F8200091
S3150800110010B104E0012070BD204600F081F8206887
S31508001110016841F00101016000F046FC054605261C
S3150800112004E000F041FC401B0A2811D820684068FA
S31508001130C007F6D02068016821F00201016000F0BE
S3150800114033FC05460BE000F02FFC401B0A2806D9A5
S31508001150606A40F40030606284F82060D2E7206854
S3150800116040688007EFD4207E0128206801683DD0BA
S3150800117021F080010160607E01282068016838D06E
S3150800118021F040010160A07E01282068016833D063
S3150800119021F020010160E07E0128206801682ED038
S315080011A041F010010160207F01282068016829D0DC
S315080011B021F008010160607F01282068016824D0B9
S315080011C021F004010160D4E902010843D4E90412BC
S315080011D0114308436168491E08432168C861002015
S315080011E06062012084F82000002070BD41F0800173
S315080011F0C0E741F04001C5E741F02001CAE721F008
S315080012001001CFE741F00801D4E741F00401D9E71E
S315080012102DE9F04387B0044614216846FFF7DDF848
S31508001220384B3948DFF8D8801968D4F800C0364AF0
S31508001230022503260927DFF8D49010300024491C1C
S31508001240C44524D11960012907D1016841F000710C
S315080012500160006800F000700590106840F0020018
S315080012601060106802AB00F0020005904FF4407061
S31508001270CDE9000583E8D0006946484600F09CFAA7
S3150800128000221146142000F0FDFB142033E0DFF89D
S315080012908080C44531D1D0F800C04CF0806CC0F8CD
S315080012A000C0D0F800C001290CF0806CCDF814C03D
S315080012B0196007D1016841F000710160006800F00B
S315080012C000700590106840F002001060106802ABCC
S315080012D000F0020005904FF44050CDE9000583E880
S315080012E0D0006946484600F067FA002211464020B9
S315080012F000F0C8FB402000F0B7FB07B0BDE8F0835C
S31508001300006400400000002030380240000402401B
S31508001310006800407047000010B504460068184988
S315080013208AB0884220D025E007AB6A4600212046CD
S31508001330FFF769FDC0B90098A0F20120042813D868
S31508001340104AC1B202EBC10032F831304380BDF811
S315080013501C305BBA22F83130BDF81E1049BA8180BC
S31508001360BDF8201049BAC18000212046FFF73AFD92
S315080013700028D9D102210448FFF732FC0AB010BD73
S3150800138000680040082D002034020020704770478E
S315080013907047000070B5044690F82000012804D074
S315080013A0606A40F40020606218E0022084F8200099
S315080013B02068016821F00101016000F0F5FA054690
S315080013C00EE000BF00F0F0FA401B0A2808D9606A50
S315080013D040F400306062052084F82000012070BDCA
S315080013E020684068C007EDD1606270BD70477047DD
S315080013F0704770477047704770472DE9F0410446BB
S31508001400876D00F0D1FA064694F8350000250228C3
S3150800141006D08020606584F834500120BDE8F0814C
S315080014202068016821F0160101602068416921F0F1
S3150800143080014161206C08B9A06C20B12068016860
S3150800144021F0080101602068016821F001010160AE
S315080014500CE000F0A9FA801B052807D92020606552
S31508001460032084F8350084F83450D7E720680068EC
S31508001470C007EED194F85C103F208840B860012080
S3150800148084F8350084F834500020C7E790F8351002
S31508001490022903D08021416501207047052180F883
S315080014A035100068016821F00101016000207047CD
S315080014B02DE9F84304464FF00009CDF8009063483B
S315080014C04FF41651A56D0068B0FBF1F72E6894F835
S315080014D05C10082000FA01F131420FD021680A6831
S315080014E052070BD50A6822F004020A6094F85C10C9
S315080014F08840A860606D40F00100606594F85C1053
S315080015004FF0010808FA01F0304208D0216849690D
S31508001510090604D5A860606D40F00200606594F87D
S315080015205C1004208840304208D021680968890781
S3150800153004D5A860606D40F00400606594F85C10FE
S3150800154010208840304218D021680968090714D548
S31508001550A86020680168490304D50068000308D517
S31508001560A16C07E00168C90503D4016821F00801E8
S315080015700160216C09B12046884794F85C10202048
S315080015808840304231D021680968C9062DD5A8603F
S3150800159094F8350005282068016806D0490347D520
S315080015A0006800031DD4616C1CE021F0160101607F
S315080015B02068416921F080014161206C08B9A06C5E
S315080015C020B12068016821F00801016094F85C10D8
S315080015D03F208840A86084F8358084F83490216DCF
S315080015E01FE0E16B09B120468847606D00282BD0C3
S315080015F0606DC00714D0052084F83500206801689E
S3150800160021F0010101600098401C0090B84203D8FF
S3150800161020680068C007F6D184F8358084F83490CD
S31508001620E16C002910D001B02046BDE8F043084718
S315080016300168C905D5D4016821F01001016084F854
S31508001640358084F83490CCE7BDE8F8832000002084
S315080016502DE9F041044600F0A7F906465CB10220E0
S3150800166084F83500002584F834502068016821F094
S31508001670010101600DE00120BDE8F08100F094F958
S31508001680801B052805D920206065032084F83500CD
S31508001690F2E720680068C007F0D122681168204880
S315080016A00140D4E901031843D4E903363343184308
S315080016B063691843A3691843E3691843236A1843FF
S315080016C00843616A042903D1D4E90B131943084373
S315080016D0106020684069666A20F0070130460E43AC
S315080016E0012704280CD1A06A0643E06A40B12046C7
S315080016F0FFF7FAF820B14020606584F83570BAE73C
S31508001700206846612046FFF7DBF894F85C203F2105
S3150800171091408160656584F835700020ACE700006B
S315080017203F8010F02DE9F0410446866D90F83400AC
S31508001730002501280DD0012084F8340094F835706E
S315080017400020012F07D084F8340002252846BDE87A
S31508001750F0810220FBE7022784F835706065204691
S31508001760FFF7ECF894F85C103F208840B0602068DA
S31508001770016841F016010160206C20B120680168FB
S3150800178041F0080101602068016841F0010101602B
S31508001790DCE7000070B5044600F006F90546601C53
S315080017A002D004480078044400F0FEF8401BA0422A
S315080017B0FAD370BD280000202DE9F84FDFF8BCA148
S315080017C00022012503264FF00F090AF1040BAAF19E
S315080017D0040E00BF0B6805FA02F42340A34270D139
S315080017E00F7907F00307012F01D0022F16D187685A
S315080017F04FEA420806FA08FC27EA0C07D1F80CC09B
S315080018000CFA08FC4CEA070CC0F808C04768A7435E
S315080018100C79C4F3001494403C4344600C79E443C7
S31508001820A4070AD0C4684FEA420C06FA0CF7BC4370
S315080018308F6807FA0CF72743C7600C7904F003048E
S31508001840022C12D1D40800EB840CDCF82040570790
S31508001850FF0E09FA07F824EA0804D1F8108008FAF6
S3150800186007F848EA0408CCF8208004684FEA420CD6
S3150800187006FA0CF7BC430F7907F0030707FA0CF7CB
S31508001880274307604C6814F4403F70D03C4C2768E7
S3150800189047F480472760246822F0030704F480444D
S315080018A00094384C07EB040CDCF8084897074FEA15
S315080018B0177809FA08F7BC43334FB84202D1002714
S315080018C024E054E0314FB84201D101271EE0304FE1
S315080018D0B84201D1022719E02E4FB84201D1032799
S315080018E014E02D4FB84201D104270FE02B4FB84220
S315080018F001D105270AE02A4FB84201D1062705E09B
S31508001900284FB84201D1072700E0082707FA08F749
S315080019102743CCF80878DAF800405746D1F804C0CF
S315080019209C435FEACC2C00D51C433C60DBF80040A6
S315080019305F46D1F804C09C435FEA8C2C00D51C4353
S315080019403C60DEF800407746D1F804C09C435FEA65
S315080019508C3C00D51C433C60084F083F3C68D1F8D6
S3150800196004C09C435FEACC3C00D51C433C60521C37
S31508001970102AFFF42FAFBDE8F88F0000083C01409D
S315080019804438024000300140000002400004024092
S3150800199000080240000C02400010024000140240F9
S315080019A000180240001C0240014880687047000089
S315080019B02800002002488168027811448160704737
S315080019C0280000200B4810B5016841F40071016039
S315080019D0016841F480610160016841F48071016029
S315080019E0032000F06FF80F2000F006F800F024F846
S315080019F0002010BD003C024070B50D4D04464FF462
S31508001A007A712878B1FBF0F00A490968B1FBF0F061
S31508001A1001F02CF848B9102C07D200222146501E96
S31508001A2000F030F800206C6070BD012070BD000029
S31508001A3028000020200000200A4808B5016841F463
S31508001A4080410160006800F4804000900548001F4E
S31508001A50016841F080510160006800F080500090F4
S31508001A6008BD000044380240002809DB00F01F02C8
S31508001A70012191404009800000F1E020C0F80011E2
S31508001A8070470000F0B40E4B1B680C46C3F30223E4
S31508001A90C3F10705042D00D90425191D072901D20C
S31508001AA0002300E0DB1E012606FA05F1491E214047
S31508001AB099409E40761E16403143F0BC04F082BF22
S31508001AC00CED00E0064900F0070208684FF6FF0330
S31508001AD0184040EA0220034A104308607047000095
S31508001AE00CED00E00000FA0570470068416200202E
S31508001AF07047F0B50368586A39B19C6A4FF4827624
S31508001B0000EB144400204D1E0AE040EA02409862A9
S31508001B100FE006EB8007DF59401C04EB1744C0B200
S31508001B20A842F6D344EA02404FF4807202EB8101E0
S31508001B3058500020F0BDD0F8E00403F0CEBD01EB0C
S31508001B40C10200EB8202D0F8E004126A03F01FBD5E
S31508001B5001EBC10200EB8202D0F8E004D2F8602261
S31508001B6003F071BDD0F8E00403F0B9BD0A0601F030
S31508001B700F0101EBC10100EB810101D5143101E030
S31508001B8001F51571006804F09FBC70B504460B0694
S31508001B9001F00F0000EBC00104EB81014FF00102D8
S31508001BA04FF0000502D54A75143103E081F8555205
S31508001BB001F51571087094F89404012808D084F882
S31508001BC09424206804F09AF984F89454002070BD8F
S31508001BD0022070BD70B5044601F00F0022799042CC
S31508001BE001D9012070BD0B0601F00F0101EBC101FF
S31508001BF004EB81014FF001024FF0000502D54A754A
S31508001C00143103E081F8555201F515718D7008708D
S31508001C1094F89404012808D084F89424206804F0E1
S31508001C20DFFA84F89454002070BD022070BD01F0DC
S31508001C300F0101EBC10100EB8100D0F86802704783
S31508001C402DE9F04104460F0601F00F0000EBC00134
S31508001C5004EB81014FF001064FF0000502D54E75E1
S31508001C60143103E081F8555201F51571C2F30A02E1
S31508001C7008708A600B714A7802B14883022B00D13A
S31508001C804D7194F89404012809D084F89464206866
S31508001C9004F082F8284684F89454BDE8F0810220BE
S31508001CA0FBE710B501F00F0404EBC40100EB81015A
S31508001CB0C1E998230023C1F8683281F8553281F8C2
S31508001CC05442837901F51571012B00D1CA618279D5
S31508001CD0006804F0DDFA002010BD70B504460D4614
S31508001CE001F00F002179884201D9012070BD29062B
S31508001CF04FF000064FF0010206D500EBC00104EBD9
S31508001D0081014A75143107E005EBC50104EB810131
S31508001D1081F8556201F515718A70087094F8940473
S31508001D20012807D084F89424206804F085FA280747
S31508001D3002D007E0022070BDA17904F29C42206817
S31508001D4004F022FA84F89464002070BD10B501F0FE
S31508001D500F0404EBC40100EB8101C1E90823002349
S31508001D608B6201234B7501F8144F8379012B00D13F
S31508001D70CA618279006804F08BFA002010BD000061
S31508001D802DE9FC5F05680446284604F039FC00285E
S31508001D907DD1206804F060FC002878D0D5F80808C2
S31508001DA0C0F30D20C4F8D404206804F055FC80075D
S31508001DB004D52068416901F002014161206804F0F8
S31508001DC04BFCC10604F29C40009034D5206881691A
S31508001DD021F0100181612F6A07F00F0000EBC000A7
S31508001DE004EB8006C7F3434006F51576022802D0B1
S31508001DF0062811D01AE047F6F070074216D0C7F346
S31508001E000A1217462846F16804F02AFCF068384496
S31508001E10F0607069384408E008222846009904F002
S31508001E201FFC7069C7F30A1108447061206881694C
S31508001E3041F010018161206804F00EFC00034FF0A8
S31508001E40080B4FF0000A4FF001097CD500262068E0
S31508001E5004F0E1FB074674E0F80770D0F1B2206899
S31508001E6004F0F2FB8046C00707D005EB4611C1F81F
S31508001E70089B3146204602F085F85FEA087024D5AB
S31508001E8005EB4611C1F808BB2068016C00E023E2A7
S31508001E9000EB46100191D0F8082BFB4B994205D967
S31508001EA0110403D54FF40041C0F8081B204600F082
S31508001EB0F6FAF5490198884207D9A079012804D18C
S31508001EC020680121009A04F05FF95FEAC86004D52A
S31508001ED005EB46111020C1F8080B5FEA88701DD57E
S31508001EE06869000605D5D5F8040840F48061C5F888
S31508001EF0041806EBC60004EB800090F8571200F5AC
S31508001F001570012905D180F803A0F1B2204600F02A
S31508001F10E9F905EB46110220C1F8080B5FEA88606B
S31508001F2004D505EB46102021C0F8081B5FEA884057
S31508001F3005D505EB46104FF40051C0F8081B7F087D
S31508001F40761C002F88D1206804F086FB40036ED5E6
S31508001F50206804F059FB0746002666E0F80762D0B9
S31508001F60F1B2206804F05EFB8046C00723D006F075
S31508001F700F01D5F8342809FA01F18A43C5F834283F
S31508001F8005EB4611C1F80899A07901280FD106EB8F
S31508001F90C60004EB8000D0E907211144016236B976
S31508001FA0606A20B920680121009A04F0EDF8F1B2C0
S31508001FB02046FFF7C4FD5FEA087003D505EB461116
S31508001FC0C1F808B95FEAC86004D505EB46111020C8
S31508001FD0C1F808095FEA486004D505EB46104021B8
S31508001FE0C0F808195FEA887016D53146284604F005
S31508001FF0DCFA06EBC60004EB8000C17D143001292B
S3150800200005D180F803A0F1B2204600F067F905EB88
S3150800201046110220C1F808095FEA086003D531466F
S31508002020204602F015F87F08761C002F96D1206806
S3150800203004F012FB002811DAD5F8040820F0010193
S31508002040C5F8041894F8CC0401282BD0204600F0D3
S315080020500BFA2068416901F000414161206804F0EB
S31508002060FBFA00050BD5D5F80808C00702D02046AC
S3150800207000F03EFA2068416901F400614161206878
S3150800208004F0EAFAC00467D5D5F8040820F0010080
S31508002090C5F804081021206804F087FA00214FF6D5
S315080020A07F3220E084F8CCA400212046FFF71CFDEF
S315080020B0CFE700BF05EB4110C0F80829D0F8003972
S315080020C023F40013C0F80039C0F8082BD0F8003BF9
S315080020D023F40013C0F8003BD0F8003B43F000633C
S315080020E0C0F8003B491C20798842E3D8D5F81C087B
S315080020F040F00111C5F81C18E07B002828460DD0D1
S31508002100D0F8840840F00B01C5F88418D5F84408BF
S3150800211040F00B012846C5F844180DE0D0F814081D
S3150800212042F22B010843C5F81408D5F8100840F008
S315080021300B012846C5F81018D0F8000820F4FE61EF
S31508002140C5F80018A1792068009A04F01DF82068DF
S31508002150416901F480514161206804F07DFA8004E8
S3150800216015D5206803F058FE206804F03CFAE071A3
S3150800217000F070FA0146E279206804F0CFFA2046AA
S3150800218000F05CF92068416901F40051416120685A
S3150800219004F062FA000707D5204600F069F92068BE
S315080021A0416901F008014161206804F055FA00060A
S315080021B016D5A86920F08001A96101260DE000BFA7
S315080021C006EBC60004EB800090F85702012803D1FD
S315080021D0F1B22046FFF7CAFC761C2079B042EFD848
S315080021E0206804F039FAC0021FD501264F4614E0CC
S315080021F005EB4610D0F8000906EBC60104EB810191
S315080022000A7E012A08D1002806DACF75F0B240F016
S3150800221080012046FFF7AAFC761C2079B042E7D851
S315080022202068416901F480114161206804F014FABC
S31508002230800234D501204A4629E000BF05EB40114B
S31508002240D1F8001B00EBC00304EB830393F8586234
S31508002250012E1BD1002919DA94F8D464C1F3004180
S3150800226006F001068E4211D183F85722A96941F07A
S315080022708003AB616969090608D4D5F8040840F4F7
S315080022800070C5F8040805E00A30544F401C21794F
S315080022908142D3D82068416901F400114161206860
S315080022A004F0DAF9400007D52046FFF744FC206819
S315080022B0416901F080414161206804F0CDF9400789
S315080022C00AD520684568680702D52046FFF74AFC04
S315080022D02068416829434160BDE8FC9FD0F8E004C6
S315080022E003F04FBAD0F8E00403F05FBAF8B504007B
S315080022F005D094F895042668002510B106E001205B
S31508002300F8BD84F89454204600F056F8032084F863
S315080023109504B6F1A04F00D1A571206803F02EFFF1
S31508002320207C8DF8000094E80F0003F083FD022658
S31508002330B8BB0021206804F0B2F990BB0020012741
S315080023400DE000BF00EBC00104EB81014F75087575
S31508002350C8850D76CD610D62401CC0B24D622179EB
S315080023608142EFD8002011E000EBC00104EB8101A7
S3150800237081F8555281F8540281F85852C1F85C52D6
S31508002380C1F86052401CC0B2C1F86452217981423A
S31508002390EAD8207C8DF8000094E80F0003F030FEA0
S315080023A010B184F89564AAE7657484F89574206872
S315080023B003F018FE0020F8BD10B586B004461421B7
S315080023C06846FEF70AF82068B0F1A04F2FD11948E1
S315080023D00021026842F001020260006800F0010074
S315080023E005904FF4C05000900220CDE9010103206A
S315080023F003900A20049069460F48FFF7DDF90D4857
S31508002400001D016841F0800101600A481430016826
S3150800241041F4804101600068002200F48040059084
S3150800242011464320FFF72EFB4320FFF71DFB06B09E
S3150800243010BD0000303802400000024070B5044666
S31508002440C079012570B1022801D0FEF725FB29467F
S31508002450D4F8E00403F018FAD4F8E004BDE87040B4
S3150800246003F0CCB90025F2E7D0F8E00403F0F5B99B
S31508002470D0F8E00403F0FBB910B5044690F89404CC
S3150800248001280AD0012084F894046174206804F0B5
S3150800249034F9002084F8940410BD022010BDD0F849
S315080024A0E02400F29C41104603F0FAB910B5044640
S315080024B0006894F89414012909D0012184F8941429
S315080024C0C168490609D5617B012902D005E00220C9
S315080024D010BD816B41F480318163206804F043F8B4
S315080024E0206803F071FD002084F8940410BD0000F4
S315080024F010B50446D0F8E00403F014FA2068D0F8C2
S31508002500001E41F00101C0F8001EE07A002804D040
S315080025100248016841F00601016010BD10ED00E0B7
S315080025202DE9F0470E46050065D0DFF81481D8F886
S315080025300000F7B200F00700B04207D288F8007032
S31508002540D8F8000000F00700B04254D128683D4C86
S31508002550810712D5400703D5206840F4E050206073
S315080025602878000703D5206840F46040206020687A
S31508002570A96820F0F000084320602878C0072DD00D
S31508002580304968680839012812D0022813D0032870
S3150800259011D00968890700292DDA216821F003017D
S315080025A001432160FFF700FA814641F2883A0EE0BE
S315080025B009688903EFE709688901ECE7FFF7F4F989
S315080025C0A0EB0901514502D90320BDE8F087206830
S315080025D0696800F00C00B0EB810FEFD1D8F8001055
S315080025E0404601F00701B14207D90770006800F0BC
S315080025F00700B04201D00120E7E72878400705D553
S315080026002068E96820F4E05008432060287800072D
S3150800261006D52068296920F4604040EAC100206098
S3150800262000F03EF82168084AC1F30311515CC8401E
S315080026300649086006480068FFF7DEF90020C4E787
S31508002640003C0240083802408F8100082000002024
S315080026502C00002001480068704700002000002078
S315080026600448054900680968044AC1F38221515C97
S31508002670C840704720000020083802409F810008A3
S315080026800448054900680968044AC1F34231515CA7
S31508002690C840704720000020083802409F81000883
S315080026A0154810B5006810F00C02144813D04110F4
S315080026B0042A0FD0082A0ED10F4C241F226823683B
S315080026C002F03F025B0207D52068C0F38810A0FB22
S315080026D0010106E0084610BD2168C1F38811A1FB77
S315080026E000010023FDF7E0FD2168C1F30141491C03
S315080026F04900B0FBF1F010BD083802400024F40090
S315080027002DE9F84F04006ED02078DFF84C93C00707
S31508002710A9F104054AD009F104000168C1F3810151
S31508002720012908D00068C0F3810002280AD1D9F827
S315080027300000400206D52868800337D5606800285F
S31508002740E1D033E06068B0F5803F10D0B0F5A02F37
S31508002750286810D020F480302860286820F480206B
S3150800276028606068A8B1FFF71FF906460DE02868DB
S3150800277040F48030F4E740F480202860F7E700BF93
S31508002780FFF712F9801B642873D828688003F7D5E9
S315080027900CE0FFF709F9064605E000BFFFF704F964
S315080027A0801B6428F0D828688003F7D42078DFF8DF
S315080027B0AC8280074FF0000A3ED5A748001D016885
S315080027C011F00C0F08D00068C0F3810002280BD165
S315080027D0D9F80000400207D42868800716D5E068B3
S315080027E0012800D112E033E1E068B8B10120C8F849
S315080027F00000FFF7D9F8064605E000BFFFF7D4F852
S31508002800801B0228C0D828688007F7D52868216960
S3150800281020F0F80040EAC10028600DE0C8F800A0E2
S31508002820FFF7C2F8064604E0FFF7BEF8801B022849
S315080028301FD828688007F7D42078000722D5864F46
S3150800284087486169703771B101210160FFF7ACF8FB
S31508002850064604E0FFF7A8F8801B022809D838685E
S315080028608007F7D50EE0C0F800A0FFF79DF80646EA
S3150800287005E082E0FFF798F8801B02287DD83868C3
S315080028808007F7D42078400768D5DFF8CCB1002751
S315080028900BF13C0BDBF80000C0000BD4DBF8001092
S315080028A041F08051CBF80010DBF80000012700F05A
S315080028B0805000906B4E3068C00510D4306840F4E4
S315080028C080703060FFF770F8009005E0FFF76CF84D
S315080028D00099401A022850D83068C005F6D55E4ED1
S315080028E0A0686C3601280FD00528306810D020F073
S315080028F001003060306820F004003060A068B8B18C
S31508002900FFF752F800900FE0306840F00100F4E756
S3150800291040F004003060F7E7FFF746F80099411ADF
S3150800292041F28830814266D830688007F4D50EE0D7
S31508002930FFF73AF8009007E0FFF736F80099411AD2
S3150800294041F28830814256D830688007F4D42FB1D6
S31508002950DBF8001021F08051CBF80010A069C8B34D
S315080029603D49091D0968C1F3810102294AD0022897
S31508002970504607D0C8F8600000E03CE0FFF714F8BE
S3150800298004463BE04746C8F86000FFF70DF80646E0
S3150800299005E000BFFFF708F8801B02282BD8286837
S315080029A08001F7D4D4E907010843A16A2E4A4908E9
S315080029B002EB0141626A41EA8211084394F82C103D
S315080029C040EA0161C9F8001001203866FEF7ECFFFD
S315080029D0044606E03EE000BFFEF7E6FF001B0228BD
S315080029E009D828688001F7D534E000BFFEF7DCFF78
S315080029F0001B022802D90320BDE8F88F2868800149
S31508002A00F4D427E00128F7D0D9F80000E26900F4E9
S31508002A10800191421CD1226A00F03F01914217D1F0
S31508002A2047F6C071626A0140B1EB821F10D1A26AF3
S31508002A304FF0FF3300F4403103EB5202B1EB024F83
S31508002A4006D194F82C1000F07060B0EB016F01D03D
S31508002A500120D1E70020CFE70438024000004742B2
S31508002A60800E4742007000400000FFFF10B5401E70
S31508002A70B0F1807F01D3012010BD4FF0E0246061E2
S31508002A800F21601703F09EFF0020A0610720206138
S31508002A90002010BD7047704710B590F83C20012AF9
S31508002AA022D0012280F83C20CA688C6822F4407241
S31508002AB022434C6822F4806222430C6822F40062A6
S31508002AC022430C6922F4805222434C6922F40052B4
S31508002AD02243C969002322F480420A4301684A64F2
S31508002AE080F83C30002010BD022010BD70B590F86B
S31508002AF03C20012A32D0012480F83C40022280F88A
S31508002B003D2003685A689D6822F070060A683243B9
S31508002B105A60134B02689A4214D0B2F1804F11D012
S31508002B20104B9A420ED0104B9A420BD00F4B9A423A
S31508002B3008D00F4B9A4205D00E4B9A4202D00E4B44
S31508002B409A4204D1496825F080031943916080F8B8
S31508002B503D40002180F83C10084670BD022070BD3B
S31508002B60000001400004004000080040000C00403E
S31508002B7000040140004001400018004010B5040060
S31508002B8003D094F83D0010B107E0012010BD0020E5
S31508002B9084F83C00204600F01FF8022084F83D0027
S31508002BA0211D206801F0AAFC012084F8460084F85B
S31508002BB03E0084F83F0084F8400084F8410084F819
S31508002BC0420084F8430084F8440084F8450084F8F9
S31508002BD03D00002010BD000008B501681E48B1F18F
S31508002BE0804F11D01D4A91421DD1016841F0040160
S31508002BF001600068002200F00400009011461E20C3
S31508002C00FEF740FF1E2021E0016841F00101016046
S31508002C100068002200F00100009011461C20FEF713
S31508002C2031FF1C2012E00E48814213D10A48001DCC
S31508002C30016841F0020101600068002200F002000C
S31508002C40009011462E20FEF71DFF2E20BDE80840F5
S31508002C50FEF70ABF08BD00004038024000080040E1
S31508002C600004014090F83D10012901D00120704769
S31508002C70022180F83D100168CA6842F00102CA6064
S31508002C8000681149884214D0B0F1804F11D00F491D
S31508002C9088420ED00E4988420BD00E49884208D089
S31508002CA00D49884205D00D49884202D00C49884210
S31508002CB004D1816801F00701062903D0016841F0B3
S31508002CC00101016000207047000001400004004037
S31508002CD000080040000C004000040140004001408C
S31508002CE00018004070B5044690F83C0000250128FD
S31508002CF017D0012684F83C60022084F83D0020683D
S31508002D00826822F0770222F47F428260086850289F
S31508002D1038D00DDC20284FD005DC90B3102811D10F
S31508002D204AE0022070BD302846D040280AD13BE050
S31508002D3060282FD070280DD0B0F5805F03D0B0F58D
S31508002D40005F12D0012584F83D60002084F83C001D
S31508002D50284670BDCB68D1E90121206801F043FC03
S31508002D602068816841F0770109E0CB68D1E9012143
S31508002D70206801F038FC2068816841F48041816050
S31508002D80E1E719E0CA684968206801F001FD5021A9
S31508002D90206806E0CA684968206801F00AFD6021D3
S31508002DA0206801F02AFCCEE7CA684968206801F065
S31508002DB0EFFC40212068F4E7226801461046F0E758
S31508002DC070472DE9F04104460068C66805694FF06A
S31508002DD00007A90713D5B10711D5F91E016101200E
S31508002DE02077206880698007204602D0FFF7E8FF31
S31508002DF004E000F0BFF8204600F051F9277768078D
S31508002E0016D5700714D521686FF0040008610220F2
S31508002E1020772068806910F4407F204602D0FFF7AB
S31508002E20CFFF04E000F0A6F8204600F038F927772F
S31508002E30280715D5300713D521686FF008000861F3
S31508002E40042020772068C0698007204602D0FFF753
S31508002E50B7FF04E000F08EF8204600F020F9277747
S31508002E60E80616D5F00614D521686FF0100008613B
S31508002E70082020772068C06910F4407F204602D0D9
S31508002E80FFF79EFF04E000F075F8204600F007F90A
S31508002E902777E80708D0F00706D021686FF0010009
S31508002EA00861204600F060F9280608D5300606D5E0
S31508002EB021686FF0800008612046FFF7EBFD680681
S31508002EC008D5700606D521686FF0400008612046CF
S31508002ED000F05EF9A8060AD5B00608D521686FF095
S31508002EE0200008612046BDE8F041FFF7D4BDBDE8E3
S31508002EF0F081000010B586B0044614216846FDF737
S31508002F006CFA2368002117480222B3F1804F17D0C4
S31508002F10154CA34212D1036843F00403036000680A
S31508002F2000F00400059040200090CDE9012103201F
S31508002F30CDE9031069460D48FEF73EFC06B010BD04
S31508002F40036843F001030360006800F00100059080
S31508002F500C200090CDE901210120CDE90310694636
S31508002F600348E9E7303802400004014000080240FF
S31508002F7000000240704770B5044690F83C000026F1
S31508002F800D4601280FD0012084F83C006AB1042AB6
S31508002F901DD0082A2FD00C2A3FD00126002084F8FD
S31508002FA03C00304670BD022070BD206801F02EFB43
S31508002FB02068816941F0080181612068816921F0F2
S31508002FC004018161206881692A69114311E020683A
S31508002FD001F04CFB2068816941F400618161206839
S31508002FE0816921F480618161206881692A6941EAE1
S31508002FF002218161D2E7206801F06EFB2068C16971
S3150800300041F00801C1612068C16921F00401C1616C
S315080030102068C1692A69114311E0206801F090FB14
S315080030202068C16941F40061C1612068C16921F461
S315080030308061C1612068C1692A6941EA0221C161CA
S31508003040ACE710B5040003D094F83D0010B107E0D2
S31508003050012010BD002084F83C00204600F01EF830
S31508003060022084F83D00211D206801F047FA01205E
S3150800307084F8460084F83E0084F83F0084F840004F
S3150800308084F8410084F8420084F8430084F8440038
S3150800309084F8450084F83D00002010BD704770474D
S315080030A010B50446022249B104290ED0082913D0C6
S315080030B094F84100012816D0012010BD94F83E006E
S315080030C00128F9D184F83E200FE094F83F00012842
S315080030D0F2D184F83F2008E094F840000128EBD1AB
S315080030E084F8402001E084F841200122206801F09C
S315080030F06DFA16492068164A884201D0904203D1D3
S31508003100436C43F4004343642068884213D0B0F10B
S31508003110804F10D00F4988420DD00F4988420AD0F7
S315080031200E49884207D0904205D00D49884202D000
S315080031300C49884204D1816801F00701062903D0A9
S31508003140016841F001010160002010BD0000014046
S31508003150000401400004004000080040000C004044
S31508003160004001400018004000680649884207D11F
S31508003170DFED050A9FED050AB0EE601AFDF7A2BA63
S31508003180704700000008004000000000000096C3D9
S315080031907047704710B504460068406994F84110B6
S315080031A0C0F3C010212911D180B12068143050E82D
S315080031B0001F21F0800140E80012002AF5D1A06B1B
S315080031C008B1FEF71AF9204601F0D7FB20684069D6
S315080031D094F84210C0F38010222911D180B12068DA
S315080031E0143050E8001F21F0400140E80012002A80
S315080031F0F5D1E06B08B1FEF700F9204601F096FB21
S31508003200002010BD70470000F8B50168044608683C
S31508003210CA684B6910F00F0F4FF0000559D003F03C
S31508003220010602F49077374365D0C10705D0D1056A
S3150800323003D5616C41F001016164410705D5D907E1
S3150800324003D0616C41F002016164810705D5D90795
S3150800325003D0616C41F004016164010707D502F0EF
S315080032602001314303D0616C41F008016164616C4F
S3150800327000293AD0800604D5900602D5204601F0EA
S315080032808AFB20684069616CC0F38010090700D486
S3150800329060B3204601F04AFB20684069400621D504
S315080032A02068143050E8001F21F0400140E8001261
S315080032B0002AF5D1E06BA8B172490165E06BFEF70B
S315080032C0E5F8002811D0E06B016D01B0BDE8F040CB
S315080032D0084783060FD593060DD52046BDE8F84066
S315080032E001F059BB2046FFF78DFFF8BD2046FFF7D2
S315080032F089FF6564F8BD266B2023012E7ED1C6069C
S315080033007CD5D6067AD508684868009048694FF093
S31508003310020640064DD5E26B106840684FF4807788
S315080033200004000C3AD0A18D814237D9E085D069D6
S31508003330B8422DD020680C3050E8001F21F4807167
S3150800334040E80012002AF5D12068143050E8001F22
S3150800335021F0010140E80012002AF5D12068143056
S3150800336050E8001F21F0400140E80012002AF5D17C
S3150800337084F84230256320680C3050E8001F21F09D
S31508003380100140E80012002AF5D1E06BFEF735F887
S315080033906663A08DE18D401A81B206E0A18D814257
S315080033A0A8D1D069B842A5D166632046FFF7F1FED9
S315080033B0F8BDA08DE18D401A81B2E08D0028F7D0C6
S315080033C00029F5D020680C3050E8002F22F49072BE
S315080033D040E80027002FF5D12068143050E8002F68
S315080033E022F0010240E80027002FF5D184F8423088
S315080033F0256320680C3050E8002F00E006E022F034
S31508003400100240E80023002BF3D1CDE705062BD5A3
S31508003410150629D594F841002128C9D1A068B0F528
S31508003420805F01D12069B0B1206A411C2162216800
S3150800343000784860E08C401E0004000CE084B7D198
S315080034402068C16821F08001C1602068C16841F028
S315080034504001C160F8BD206A0088C0F308004860D2
S31508003460206A801C2062E5E74006F3D55006F1D5B0
S31508003470CA68204622F04002CA6084F8413000F04B
S3150800348023FAF8BDE547000870B5040004D094F89F
S315080034904100002510B106E0012070BD84F84050B7
S315080034A0204600F023F8242084F841002068C168EB
S315080034B021F40051C160204601F0CEFA2068016966
S315080034C021F4904101612068416921F02A01416196
S315080034D02068C16841F40051C1606564202084F801
S315080034E0410084F842006563002070BD2DE9F04F65
S315080034F087B0044614216846FCF76FFF954995483E
S31508003500934ED4F800C010380222032300254F0535
S315080035104FF4406A4FF0010E4FF48069B4455AD112
S315080035200E68AB4646F400260E60096801F40021D1
S315080035300591016841F0040101600068CDF808E0D2
S3150800354000F0040005900820CDE90330CDE900A27B
S3150800355069468148FEF730F9DFF804A27F495046EC
S31508003560CAF80010C0E90175C0E90359B846CAF897
S315080035701450BF12CAF81850CAE907574E46CAF877
S315080035802450FEF765F808B1FDF786FA744D7348BE
S31508003590C4F83CA060353030CAF83840C5E90008A0
S315080035A04020A860C5E903B6C5F814B0C5F818B038
S315080035B0C5E907B72846C5F824B0FEF749F808B1A3
S315080035C0FDF76AFAA563002211463420AC63FEF7BC
S315080035D059FA342056E0DFF88C810726C44556D1BF
S315080035E05C49091DD1F800C04CF0100CC1F800C0A8
S315080035F0096801F010010591016841F001010160B7
S315080036000068694600F0010005904FF4C0608DE837
S315080036100540CDE903365448FEF7CEF8504E5348D8
S31508003620C036B8463060C6E90175C6E90359801543
S315080036307561C6E906504702C6E908753046FEF7C1
S3150800364007F808B1FDF728FAE663B4634748484E19
S315080036507830E6E802084020A6E82102444846F801
S315080036601459B561C6E907577562FDF7F1FF08B148
S31508003670FDF712FAA663002211462520B463FEF769
S3150800368001FA2520FEF7F0F907B0BDE8F08FDFF85C
S31508003690E480C44537D1D1F800C04CF4003CC1F8E9
S315080036A000C0096801F400310591016841F008017C
S315080036B001600068694600F00800059060208DE802
S315080036C02500CDE903362C48FEF776F8284E234820
S315080036D0603648303060C6E90175C6E90359756138
S315080036E0B561F561356230467562FDF7B1FF08B11F
S315080036F0FDF7D2F9E663002211462620B463FEF7E9
S31508003700C1F92620BEE71D4CA445BDD10C6844F47A
S3150800371080240C60096801F480210591016841F054
S31508003720020101600068CDF800A000F00200CDE9B2
S3150800373004600393CDE9012569461148FEF73CF874
S31508003740002211462720FEF79DF927209AE7000058
S31508003750004C0040403802400008024040600240E9
S31508003760B4050020001001400000024040640240F9
S31508003770D406002000440040000C024000480040E7
S315080037800004024090F84230202B01D002207047F6
S3150800379021B11AB10023036301F0E4B9012070478F
S315080037A0704770472DE9F843044690F8410098465B
S315080037B016460D46202802D00220BDE8F88385B1BA
S315080037C07EB100206064212084F84100FEF7ECF801
S315080037D0A6848146E684A0682027B0F5805F02D0DB
S315080037E003E00120E9E7206910B12E4600250EE026
S315080037F000260CE08021204601F004FAA8B9C6B1DB
S3150800380016F8010B21684860E08C401EE084E08CC5
S315080038104B464FF00002CDF800800028EAD14FF061
S315080038204001204601F0EEF940B184F841700320CA
S31508003830C3E735F8020BC0F30800E3E784F84170E4
S315080038400020BAE770B5044690F84100202801D058
S31508003850022070BD01B3FAB12162A284E28400207D
S315080038606064212384F84130A56B144BEB63A56B88
S31508003870134B2B64A56B134BEB64A36B186520687D
S315080038801346A56B021D2846FDF74CFF30B11020E4
S315080038906064202084F84100012070BD21686FF023
S315080038A0400008602068143050E8001F41F080018D
S315080038B040E80012002AF5D1002070BDE148000852
S315080038C023490008F347000870477047FEE70000E1
S315080038D0F0B500230A24302537261F4611E000BF1D
S315080038E0B4EB107F02D905EB107C01E006EB107CE7
S315080038F001F813C001EB430C00015B1C8CF8017046
S31508003900DBB29342ECD3F0BD012202490248FFF72D
S3150800391039BF0000EE01002024050020F0EE401A11
S3150800392090ED020AD0ED000A70EE200A90ED010A29
S3150800393030EE200A80EE801A80ED041A90ED030A14
S3150800394071EEC01A01EE210AF7EE001A31EEC11A1D
S3150800395080ED030A61EE200AC0ED020A70470000F6
S315080039600F4810B50D4901600321416000214FF44D
S3150800397000228160C0E903124FF4401242610176C9
S3150800398041768176C17601774177FDF7B4FB002849
S3150800399003D0BDE81040FDF77FB810BD00640040B5
S315080039A00C0200200F4810B50D4901600321416043
S315080039B000214FF420228160C0E903124FF48012DF
S315080039C04261017641768176C17601774177FDF7C6
S315080039D092FB002803D0BDE81040FDF75DB810BD86
S315080039E000680040340200202A4808B50268002111
S315080039F042F480020260026802F4800200920268C1
S31508003A0042F4001202600068234A00F40010009095
S31508003A102248C0E90021802282609200C2605200DA
S31508003A20C0E9042181610422C161C0E908120322A8
S31508003A30C0E90A210163FDF70BFE08B1FDF72CF872
S31508003A40002211460D20FEF71DF80D20FEF70CF892
S31508003A50002211460F20FEF715F80F20FEF704F88E
S31508003A60002211461020FEF70DF81020FDF7FCFF86
S31508003A70002211463A20FEF705F83A20FDF7F4FF32
S31508003A80002211464620FDF7FDFFBDE80840462006
S31508003A90FDF7EABF30380240106402405C0200209D
S31508003AA0154808B5016841F004010160016801F094
S31508003AB004010091016841F080010160016801F08C
S31508003AC080010091016841F001010160016801F07F
S31508003AD001010091016841F002010160016801F0ED
S31508003AE002010091016841F008010160006800F0D8
S31508003AF00800009008BD00003038024010B58EB0AE
S31508003B0000240794089409940A940B941C21684687
S31508003B100C94FCF762FC23484FF080410160A72112
S31508003B20C0E9011444F61F61C0E9031480218161CC
S31508003B30FFF724F808B1FCF7AFFF4FF48050079061
S31508003B4007A91848FFF7CEF808B1FCF7A5FF1548EE
S31508003B50FFF777FA08B1FCF79FFF0B940BA91148FA
S31508003B600C94FEF7C3FF08B1FCF796FF602000909F
S31508003B7040F2DC50CDE9010408226946094804945C
S31508003B80FFF7F9F908B1FCF787FF0C2269460548E3
S31508003B90FFF7F1F908B1FCF77FFF0248FFF7AAF92A
S31508003BA00EB010BDBC02002010B586B00024174820
S31508003BB000940194029403940494134905940160B3
S31508003BC05321C0E9011440F2E731C0E903148461C6
S31508003BD0FEF7D4FF08B1FCF75FFF4FF48050009062
S31508003BE069460A48FFF77EF808B1FCF755FF0494C2
S31508003BF004A906480594FEF779FF002801D0FCF7CA
S31508003C004BFF06B010BD000000080040040300206A
S31508003C1010B596B000240F9410941194129413942E
S31508003C201C2108A81494FCF7D8FB20216846FCF749
S31508003C30D4FB2A4828490160A721C0E9011444F6A3
S31508003C401F61C0E903148021C0E90541FEF796FF0C
S31508003C5008B1FCF721FF4FF480500F900FA91F48B9
S31508003C60FFF740F808B1FCF717FF1C48FFF7E9F91A
S31508003C7008B1FCF711FF139413A918481494FEF71A
S31508003C8035FF08B1FCF708FF6020089040F2DC50C9
S31508003C90CDE909040B940C940D94002208A90F4849
S31508003CA00E94FFF768F908B1FCF7F6FE00944FF496
S31508003CB00050CDE9044002940194039469460748EC
S31508003CC00794FEF7E9FE08B1FCF7E6FE0348FFF79E
S31508003CD011F916B010BD0000000401404C03002085
S31508003CE00C4810B50A4901604FF4E13141600021E2
S31508003CF081600C22C160C0E904128161C161FFF7CD
S31508003D00C3FB002803D0BDE81040FCF7C5BE10BDB4
S31508003D10004C0040940400200C4810B50A49016084
S31508003D204FF4E1314160002181600C22C160C0E995
S31508003D3004128161C161FFF7A7FB002803D0BDE823
S31508003D401040FCF7A9BE10BD00100140DC0400209D
S31508003D500C4810B50A4901604FF41651416000211C
S31508003D6081600C22C160C0E904128161C161FFF75C
S31508003D708BFB002803D0BDE81040FCF78DBE10BDB4
S31508003D8000440040240500200C4810B50A4901608B
S31508003D904FF4E1314160002181600C22C160C0E925
S31508003DA004128161C161FFF76FFB002803D0BDE8EB
S31508003DB01040FCF771BE10BD004800406C0500209D
S31508003DC010B500220F49104801F0BCFB08B1FCF7FA
S31508003DD063FE0E490C4801F0D1FD08B1FCF75CFE04
S31508003DE00B49094801F04EF908B1FCF755FE06489B
S31508003DF001F048FE002803D0BDE81040FCF74CBE91
S31508003E0010BD0000D800002094070020880000207C
S31508003E10C4000020FEE7000010B515482DED028B02
S31508003E20B0EE408A18EE101AB1F17E5F06DC18EE85
S31508003E30101A11F1814F01D8012107E0B0EEC80A26
S31508003E4010EE102A0B4B00219A4203DB0180BDECD1
S31508003E50028B10BD0180B0EE480AFCF7CFFDB0EE2C
S31508003E60480ABDEC028BBDE81040FCF7C7BD000050
S31508003E709E01002000007042F2EE040A014800F09C
S31508003E8021BA000074230020F0EEC00A10EE900A52
S31508003E906FF07E5110B508440649074C884206D291
S31508003EA0F2EE0E0A054800F00DFA002000E00120A7
S31508003EB0208010BDFFFF9F029C010020AC2300203C
S31508003EC0014948707047000028010020154808B5C8
S31508003ED0017800291ED0407806281BD2DFE800F0BA
S31508003EE01A030609111B0022012105E040F63402D7
S31508003EF001E041F268020021BDE808400220FCF713
S31508003F006FBD00200346014600904FF496720220CA
S31508003F10FCF7AAFD08BD0021BDE808400220FCF711
S31508003F2091BD000028010020FEE70000D0210148CD
S31508003F30FCF753BA303000200148FDF721BF0000D6
S31508003F40901E002007489FED060A074980ED000AE3
S31508003F5080ED010A80ED040A012008707047000010
S31508003F6000000000003100200002002004489FEDF8
S31508003F70030A80ED020A80ED030A7047000000007C
S31508003F80003100202DE9F04103680D4604461E6CF9
S31508003F9003EB4511D1F8080B94F806E04FF40047F7
S31508003FA04FF0200C04F29C42BEF1010F09D0DFF855
S31508003FB098E0764539D1020432D500BFC1F8087BAE
S31508003FC03FE0224B5FEA007E04D59E4239D90004C1
S31508003FD0F4D436E05FEA806E02D5C1F808CB30E04B
S31508003FE010F0280F2DD19E4201D90004E6D405EB26
S31508003FF0C50004EB8000D1F8101BD0F87432C1F369
S315080040001201591AC0F8681200F51570ADB903699E
S315080040101BB1C2681144C1600FE0012120680AE0A3
S3150800402080060AD5C1F808CB07E035B9D4F864028A
S3150800403018B90021184602F0A7F8E9B22046FDF79C
S3150800404087FD0020BDE8F0810A31544F0A30544FED
S315080040502DE9F84F0E4601EBC60100EB81048146B7
S315080040600568D4E909101434884202D90120BDE84C
S31508004070F88F081AA168814200D20846C01C870832
S3150800408005EB46181BE000BFA0EB010AA0685045E7
S3150800409000D282460AF10300870899F806000090C4
S315080040A01FFA8AF3F2B22846E16802F0ABFBE16830
S315080040B001EB0A00E060616901EB0A006061D8F86B
S315080040C0180980B2B84205D3D4E90401814201D265
S315080040D00028D9D1D4E90401884208D806F00F018E
S315080040E001208840D5F834188143C5F834180020D3
S315080040F0BDE70000F0EE400A254AB0EEE00A10EEF1
S31508004100101A914241DA90ED040A30EE201A80ED39
S31508004110041A90ED050AB4EEC01AF1EE10FA01DDA4
S3150800412080ED040A90ED041AB1EE400AB4EEC01A06
S31508004130F1EE10FA02D200BF80ED040A90ED010AF2
S3150800414090ED041AD0ED031A20EE010A90ED001A3C
S3150800415070EEE11A01EE200A90ED021AC0ED030A8C
S31508004160D0ED060A01EE210AF4EEC00AF1EE10FAC5
S3150800417001D2B0EE600AF1EE600AF4EEC00AF1EE82
S3150800418010FA01DDB0EE600A70479FED020AD3E728
S315080041900000204100000000704770470178407811
S315080041A041EA002070470000FEB50DF1200C9CE89E
S315080041B0F0004FF0190C8DF800C08DF801008DF84D
S315080041C0087034208DF804308DF809008DF8054004
S315080041D008488DF802108DF806508DF803208DF8E2
S315080041E0076090F89C02032803D10A216846FCF769
S315080041F0C7F9FEBD9407002010B50446DFED2C0A6A
S31508004200C4E90012B5EEC00A0020F1EE10FA274AFA
S3150800421002D29FED280A05E010EE101A914201DD40
S31508004220B0EE600A9FED241A012184ED061A80EE8D
S31508004230201ADFED220A9FED220A01EE200A84EDFC
S31508004240020AA081A1732061FDF7AEFB6061606878
S31508004250A0B104281DD094ED020A08282168BCEEF6
S31508004260C00A096810EE100A80B21DD0C1F84000D5
S31508004270D4E90001BDE81040FEF712BF94ED020A2A
S315080042802168BCEEC00A096810EE100A80B24863BD
S31508004290EEE794ED020A2168BCEEC00A096810EE42
S315080042A0100A80B28863E3E7C863E1E70000874342
S315080042B000008743000000007B09ED400000FA4437
S315080042C00000FA43B0EEC01A11EE101A204A9142C5
S315080042D03DDB90ED021AD0ED061A1E4BB0EE412AD0
S315080042E000EE211A1C4A11EE101A994202DA9FEDC5
S315080042F01B1A05E011EE101A914201DD9FED181AFE
S31508004300184A31EE420AB0EEC01A11EE101A91425E
S315080043101DDBB5EEC00A0121F1EE10FA01DD81734D
S3150800432003E0FF228273B1EE400A80EE211AB6EE50
S31508004330000A31EE000ABCEEC00A10EE102A12B2CC
S31508004340828102B98181BCEEE00A80ED040A7047D9
S31508004350CDCC4C3D0000FA4300401C450000FA4312
S3150800436000401C45CDCCCC3D10B50446B0F90C0038
S3150800437000283DDDFDF718FB61692269411A914263
S3150800438036D36061A07B94ED020AD4ED060A0128B3
S315080043902FD030EE600A00BF10EE101A204A002017
S315080043A084ED020A914204DA9FED1E0A84ED020AA0
S315080043B0A08110EE101A1C4A914204DD9FED1B0ADB
S315080043C084ED020AA0816068B0B104281DD0BCEE55
S315080043D0C00A0828216810EE100A096880B21DD0A4
S315080043E0C1F84000B4F90C00002801DD401EA08188
S315080043F010BD30EE200ACFE7BCEEC00A216810EEE9
S31508004400100A096880B24863ECE7BCEEC00A216866
S3150800441010EE100A096880B28863E3E7C863E1E72B
S315080044200000FA430000FA4300401C4500401C45C2
S31508004430FDF7C0BA30B593B030216846FBF7CDFF1B
S3150800444014210CA8FBF7C9FF1D480025016841F097
S3150800445080510160006800F0805011901948016889
S3150800446041F4804101600068022400F48040119004
S3150800447001200090000401908001CDE90640042047
S315080044800890A820CDE9090407200B906846FEF796
S3150800449037F908B172B6FEE70CA90F2081E831009A
S315080044A04FF4A0500F904FF48050109005210CA89F
S315080044B0FEF736F8002801D072B6FEE713B030BD15
S315080044C040380240007000400248016841F470011B
S315080044D00160704788ED00E00148FEF772BC0000F5
S315080044E0BC0200200148FEF76CBC00000403002053
S315080044F00148FEF766BC00004C030020F0B50268D0
S31508004500274B284D284E294F294C4FF0804C98426E
S3150800451009D0604507D0A84205D0B04203D0B842BA
S3150800452001D0A04204D122F0700E4A6842EA0E0277
S3150800453098421BD0604519D0A84217D0B04215D072
S31508004540B84213D0A04211D01A4DA8420ED01A4D27
S31508004550A8420BD0194DA84208D0194DA84205D03B
S31508004560184DA84202D0184DA84203D122F440752E
S31508004570CA682A434D6922F080022A438D68C562BB
S315080045800D688562984201D0A04201D1096901638C
S31508004590016841F004010160012141610260F0BD3A
S315080045A0000001400004004000080040000C0040E4
S315080045B00004014000400140004401400048014019
S315080045C000180040001C00400020004010B501F013
S315080045D01F030121046A99408C430462016A9A40C8
S315080045E01143016210BD10B5846842EA032224F41F
S315080045F07F440A432243826010BD826822F070021B
S315080046000A4342F00701816070470000F0B5036A6B
S31508004610026A22F00102026242688469124E24F09C
S3150800462073050C682C4323F002058B682B430D4D4C
S31508004630A84201D0B04205D123F00807CB683B4316
S3150800464023F00403A84201D0B04205D14D6922F4F3
S31508004650407215438A692A43426084614968416306
S315080046600362F0BD0000014000040140F0B5026A93
S31508004670036A23F010030362436884690D6824F40F
S31508004680E64444EA05248D6822F0200242EA05122F
S315080046900F4D104EA84201D0B04206D1CF6822F085
S315080046A0800242EA071222F04002A84201D0B04234
S315080046B007D14D6923F4406343EA85038D6943EACC
S315080046C0850343608461496881630262F0BD000026
S315080046D00000014000040140F0B5026A036A23F4B1
S315080046E0807303624368C46922F4007224F0730578
S315080046F00C68124E2C438D6842EA05220E4DA842DC
S3150800470001D0B04206D1CF6822F4006242EA0722FD
S3150800471022F48062A84201D0B04207D14D6923F441
S31508004720405343EA05138D6943EA05134360C461A0
S315080047304968C1630262F0BD0000014000040140FF
S3150800474030B5046A026A22F4805202624268C3697A
S315080047500D6823F4E64343EA05238D6824F40054E0
S3150800476044EA0534084DA84202D0084DA84204D1AF
S315080047704D6922F4804242EA85124260C361496863
S315080047800164046230BD00000000014000040140DD
S3150800479010B5036A046A24F001040462846924F0EB
S315080047A0F00444EA021423F00A020A43846102620E
S315080047B010BD10B5036A046A24F010040462846903
S315080047C023F0A00324F4704444EA023243EA0111B8
S315080047D08261016210BD00000148FEF715BD0000A8
S315080047E09404002010B5806B0021C185FEF70AFDF0
S315080047F010BD70B5846B2068406994F84110C0F309
S31508004800C0100025212904D118B1E584204600F0FE
S31508004810B4F82068406994F84210C0F38010222941
S3150800482004D118B1E585204600F080F8606C40F0A8
S31508004830100060642046FEF7E5FC70BD10B5014621
S31508004840806B096809684FF00002C9052ED4C28535
S3150800485001680C3151E8003F23F4807341E80034C5
S31508004860002CF5D10168143151E8003F23F001030B
S3150800487041E80034002CF5D10168143151E8003FB5
S3150800488023F0400341E80034002CF5D1202180F8BC
S315080048904210016B012909D101680C3151E8003F2A
S315080048A023F0100341E80034002CF5D14263016B74
S315080048B0012902D0FEF774FF10BD818DFEF769FC51
S315080048C010BD10B5806B01214163016B012902D02F
S315080048D0FEF767FF10BD818D4908FEF75AFC10BD2B
S315080048E010B50146806B09680968C90516D4002108
S315080048F0C1840168143151E8002F22F0800241E892
S315080049000023002BF5D101680C3151E8002F42F045
S31508004910400241E80023002BF5D110BDFEF7D4FF75
S3150800492010BD10B5806BFEF7D0FF10BD01680C31C5
S3150800493051E8002F22F4907241E80023002BF5D1AC
S315080049400168143151E8002F22F0010241E80023E2
S31508004950002BF5D1016B012909D101680C3151E809
S31508004960002F22F0100241E80023002BF5D1202168
S3150800497080F8421000210163704701680C3151E844
S31508004980002F22F0C00241E80023002BF5D1202198
S3150800499080F84110704708B590F84210222901D0D6
S315080049A0022008BD82684FF480539A4201D10169FA
S315080049B021B1816A9A421BD04AB10AE00268816A2B
S315080049C05268C2F308020A80816A891C08E00269F3
S315080049D072B10268526802F07F020A70816A491C45
S315080049E08162C18D491E0904090CC18503D01BE0EB
S315080049F002685268F1E70168CA6822F02002CA60B4
S31508004A000168CA6822F48072CA6001684A6922F09D
S31508004A1001024A61202180F8421000214163026B9D
S31508004A20012A03D0FEF7BCFE002008BD0163016819
S31508004A300C3151E8002F22F0100241E80023002B28
S31508004A40F5D101680A68D20602D50A684968009154
S31508004A50818DFEF79EFBE7E770B50446006801699D
S31508004A60E26821F44051114301612169A068E269B5
S31508004A7008436169114308432168CA6849F20C630F
S31508004A809A430243CA6020684169A26921F44071C9
S31508004A901143416131492068884202D03049884231
S31508004AA002D1FDF7EDFD01E0FDF7DAFDE26900232D
S31508004AB0192164253226B2F5004F626828D0A0FB7A
S31508004AC00101930F9200FBF7EFFB0146B0FBF5F0EF
S31508004AD06FF01802504301EB800006EB0010B0FBA4
S31508004AE0F5F000F0F002B1FBF5F002EB0012B1FBB5
S31508004AF0F5F06FF01803584301EB800006EB001041
S31508004B00B0FBF5F000F00F0021681044886070BD16
S31508004B10A0FB010192185B41FBF7C6FB0146B0FBFF
S31508004B20F5F00201B1FBF5F06FF01803584301EBFD
S31508004B30800006EBC000B0FBF5F000F0F80002EBD1
S31508004B404002B1FBF5F0584301EB800006EBC000CC
S31508004B50B0FBF5F000F00700D6E7000000100140B2
S31508004B600014014038B58162044682850020134648
S31508004B706064222284F84220E56B1F4AEA63E56BEB
S31508004B801E4A2A64E56B1E4AEA64E26B10650A4609
S31508004B902168E06B091DFCF7C5FD30B11020606483
S31508004BA0202084F84200012038BD2068016840684A
S31508004BB00090206948B120680C3050E8001F41F485
S31508004BC0807140E80012002AF5D12068143050E8B8
S31508004BD0001F41F0010140E80012002AF5D12068C3
S31508004BE0143050E8001F41F0400140E80012002A46
S31508004BF0F5D1002038BD00003D480008C34800082C
S31508004C00F34700082DE9F843984617460D4604462B
S31508004C10089E24E0701C22D0FCF7C6FEA0EB080014
S31508004C20B0421AD8CEB12068C168490717D5802D79
S31508004C3015D0402D13D00168C94309070FD4016860
S31508004C400025406800902046FFF770FE0820606443
S31508004C5084F840500120BDE8F8830320FBE720686C
S31508004C60006835EA000004D00020B842D2D00020FF
S31508004C70F1E70120F9E70000104808B50068016867
S31508004C80C943C90614D40168406800900B48FEF76A
S31508004C9081FA0B48006840680A49C0F1FF000870AD
S31508004CA0094901200870FF2208490448FEF76AFDF1
S31508004CB0BDE808400148FEF7A7BA0000DC0400205A
S31508004CC074060020250000202400002094030020FC
S31508004CD00148FEF799BA0000240500200148FEF7AE
S31508004CE093BA00006C0500202DE9F0410C46D0F877
S31508004CF0D412D0F8C82200EB8101D1F8C01229B32A
S31508004D0004F00F0606EB860300EB830500276B69A4
S31508004D104BB106EBC60602EB8602D269B3FBF2F686
S31508004D2002FB1632A2B1C1F81472D0F8D42200EBF5
S31508004D308200D0F8C40203692BB1D1F808022246D2
S31508004D4001F5047198470020BDE8F0810320FBE7D0
S31508004D5000231A4621466F6100F0F1FDF3E770B5AE
S31508004D600546D0F8D40205EB8000D0F8C04294B1CD
S31508004D70284600F0C3FCC4F80C02D5F8D412D4F8BF
S31508004D80040205EB8101D1F8C412CA6804F503715F
S31508004D909047002070BD032070BD000070B5234DFC
S31508004DA00446297800F0EAFB2878002600F00F0070
S31508004DB000EB800004EB800080F8236069782046C9
S31508004DC000F0DCFB687800F00F0000EB800004EBD5
S31508004DD0800080F86361A978204600F0CFFBA878A8
S31508004DE000F00F0000EB800004EB800080F82360E1
S31508004DF0C661D4F8D40204EB8000D0F8C01299B189
S31508004E00D0F8C40240688047D4F8D40204EB800086
S31508004E10D0F8C00200F0BAFFD4F8D40204EB800040
S31508004E20C0F8C062C4F8BC62002070BD340000201F
S31508004E3010B5D0F8D41200EB8100D0F8C04284B186
S31508004E40D0F8C41259B194F80002FF2807D08B682D
S31508004E5094F8012221469847FF2084F80002002092
S31508004E6010BD032010BD00000A21018000487047CC
S31508004E703800002070B5064682210C4800F001FB78
S31508004E8005460121094800F0FCFA04468121074835
S31508004E9000F0F7FA0DB11021A971402104B1A180E3
S31508004EA000B1818043203080004870BD4400002056
S31508004EB070B5064682210D4800F0E3FA0546012141
S31508004EC00A4800F0DEFA04468121084800F0D9FABB
S31508004ED00DB11021A9714FF4007104B1A18000B180
S31508004EE0818043203080014870BD000044000020C6
S31508004EF070B5064682210C4800F0C3FA0546012122
S31508004F00094800F0BEFA04468121074800F0B9FABC
S31508004F100DB11021A971402104B1A18000B1818091
S31508004F2043203080004870BD440000202DE9F0473A
S31508004F3004464FF40775284600F02AFF06004FF08E
S31508004F40000865D02946FBF748FAD4F8D4023E4D46
S31508004F5004EB80004FF01009C0F8C062C4F8BC62C8
S31508004F60207C4FF4007A0127E8B3402302222978EF
S31508004F70204600F02EFC2878402300F00F0000EBB6
S31508004F80800004EB800080F82370022269782046AE
S31508004F9000F01FFC6878082300F00F0000EB800083
S31508004FA004EB8000032280F86371A978204601F09B
S31508004FB00F0101EB810104EB8101C1F81C90A9786E
S31508004FC000F007FCA87800F00F0000EB800004EB67
S31508004FD0800080F82370C6F80482D4F8D4024746C5
S31508004FE004EB800000E01BE0D0F8C40206F5017669
S31508004FF0006880473761776132687AB1207C00B3F0
S3150800500040236978204600F0F0FB0020BDE8F087D1
S31508005010D4F8D41204EB8101C1F8C0820220F5E766
S31508005020534602222978204600F0D3FB28785346B7
S3150800503000F00F0000EB800004EB800080F823707E
S31508005040A3E75346DDE700003400002010B5D0F88A
S31508005050D41200EB8101D1F8C01259B1027C084C78
S31508005060002AD1F8042207D04023617800F0BDFB5E
S31508005070002010BD032010BD4FF40073F5E70000B3
S315080050803400002039B1D0F8D42200EB8200C0F8F1
S31508005090C4120020704703207047D0F8D42200EBD2
S315080050A08200D0F8C00218B1C0F804120020704778
S315080050B003207047D0F8D43200EB8300D0F8C00242
S315080050C028B1C0F81022C0F8081200207047032043
S315080050D070472DE9FC410646D0F8D4020C4606EB8B
S315080050E080000021D0F8C0728DF80010ADF80410C9
S315080050F00D4637B1217811F060022FD0202A4BD106
S3150800510002E00320BDE8FC81E288F2B109060DD56C
S31508005110D0F8C40263783946D0F808C01846E04784
S31508005120E288072A00D9072239462DE0607887F8F1
S315080051300002E088402800D34020C2B287F8012246
S315080051403946304600F081F82BE0D0F8C40263787F
S315080051500022866821461846B04722E0607830B1BA
S3150800516001281ED00A2809D00B2815D110E096F878
S315080051709C02032810D1022201A905E096F89C0298
S31508005180032809D101226946304600F07AF808E07A
S3150800519096F89C02032804D02146304600F04AF8C7
S315080051A003252846AEE7000010B5D0F8D41200EB68
S315080051B08101D1F8C02201211AB1D2F8143213B1F3
S315080051C016E0032010BD0121C2F814120949D2F8CD
S315080051D01032097801F00F0404EB840400EB840410
S315080051E06361D2F81032D2F8082200F0A8FB002139
S315080051F0084610BD3400002010B5D0F8B8220024A7
S315080052005268904700B10324204610BD002070471D
S3150800521000207047134610B50A46002100F0E5FA4B
S31508005220002010BD134610B50A46002100F087FB82
S31508005230002010BD10B50446802100F061FB204611
S31508005240BDE81040002100F05BBB10B50323C0F891
S315080052509432C0F85421C0F858211346C0F8641196
S315080052600A46002100F0C1FA002010BD10B505213C
S31508005270C0F8941200231A46194600F0B6FA002020
S3150800528010BD10B50223C0F89432426182611346FC
S3150800529041620A46002100F052FB002010BD10B5FD
S315080052A00421C0F8941200231A46194600F047FB59
S315080052B0002010BD10B50A46024903A000F00FF9F8
S315080052C0004810BD701A002043444320436F6E66A1
S315080052D0696700001220088000487047F80000201F
S315080052E010B50A46024903A000F0F9F8004810BDB7
S315080052F0701A002043444320496E746572666163E0
S31508005300650000000420088000487047F40000206B
S3150800531010B50A46024903A000F0E1F8004810BD9E
S31508005320701A002053544D6963726F656C65637417
S31508005330726F6E696373000010B50A46024903A0CE
S3150800534000F0CDF8004810BD701A002053544D33B4
S3150800535032205669727475616C20436F6D506F7296
S315080053607400000010B51A2008800A480168001D5C
S315080053700468001D0068081809D008220649FEF7C7
S31508005380A7FA0549042210312046FEF7A1FA024879
S31508005390801E10BD107AFF1F0E010020F8B50446C6
S315080053A00020ADF8000048880D46010A08295FD29A
S315080053B0DFE801F05E0409175E5E3C45D4F8B412D6
S315080053C0207C0A6819E0207C02260028D4F8B80256
S315080053D005D0C16A684688470146467039E0816A41
S315080053E0F8E7C0B2062843D2DFE800F0030A101433
S315080053F0181CD4F8B402426805E0694690471CE0D8
S31508005400D4F8B402826892B3207CF6E7D4F8B402E2
S31508005410C268F8E7D4F8B4020269F4E7D4F8B4022B
S315080054204269F0E7D4F8B4028269ECE7207CF0B967
S31508005430D4F8B802416B68468847014609E0207CE3
S31508005440A8B9D4F8B802016B684688470146072010
S315080054504870EA888AB1BDF8000040B1824200D996
S315080054600246ADF800202046FFF70BFFF8BDFFE720
S3150800547029462046FFF7DEFEF8E72046FFF70FFF2E
S31508005480F4E778B50E4642880178002504468A4234
S3150800549012D9ADF800100AE0694600F019F841780B
S315080054A0052904D181780546B14205D000256188D1
S315080054B0BDF800209142EFD8284678BD0146002065
S315080054C002E0401CC0B2491C0A78002AF9D170478C
S315080054D00A8803781A440A8001780844704770B528
S315080054E016460D46002820D00446FFF7E7FF02219E
S315080054F001EB40014FF40070814204D82046FFF7C3
S31508005500DDFF4000801C30803078287003206870EA
